:1000000010308A00002800000A108A100A118207A6
:10001000003401340234053403340434013402342E
:1000200020340334073403340634063402340534F0
:100030000334033406340634023403340334043402
:1000400007340334073420342034073407340634AB
:1000500006340334033404340034063406340534DF
:100060000334043401340134073420342034073499
:1000700000340634023405340334043400340634C6
:100080000234033403340434203420342034203444
:1000900020342034202AE837EE33203A6937202AEA
:1000A0004B10F33069102110000031175434E5363D
:1000B000202A4B1020103217D8376110D4250001A8
:1000C0003317C4376910CD35201020103417453C44
:1000D000693A00013517CC346334A0397510C43047
:1000E000EE332027E83070004E346138201D2000A8
:1000F0003117C4376910ED3074106B34E13A0001E8
:1001000032175434EF3074004E3461383A00D4253D
:100110003A00CD253A0020224F10E4306910ED302E
:1001200078103D1038002027E8306E104410E4327B
:10013000203CE1312037E8306E00D4253A00CD254F
:100140003A00202AE137A02AF3327200D4253A007F
:100150002027E8307010CD25A036EF343A00CD25A9
:100160003A002022EF34A0264B1074346137681017
:10017000E337EE33A01020002027E8307010CD25A3
:10018000A036EF343A00CD253A002E00D4253A00AF
:10019000A025E837EE33A0316F10D5396539203707
:1001A000E137A0102000202169106B34EF30203A95
:1001B000F237EE332014F314000154346F37671014
:1001C000D4346E10C430EE332027E8307000D539B7
:1001D00065393A00321800014334F530A0316F1010
:1001E000D5292022613767104E3461380001202A5A
:1001F0004B10E430203A6F37203AE134A010200051
:10020000202AE137202A6B10743461376810E337F5
:10021000EE33A01020002024653A202275376710A5
:10022000EC3A6F376700202CEF30203AE8306E341C
:10023000A0316F37671021100001D43069104B34A2
:10024000EF306E10EB37203A6F37203AE134000080
:10025000831688015E0883128800831609108312B2
:1002600009141030F700F70B33290000831609102A
:10027000831209103130F700F70B3C293F290800A1
:1002800083160911831209118316DF015D08DE0050
:10029000831228210800D630840083130008031934
:1002A0005E290630F800F701F70B5429F80B5329A3
:1002B0007B30F700F70B5A29800B51290800831671
:1002C000091083120910831609118312091183166C
:1002D00089108312891038308316DD008312402183
:1002E0000F308316DD008312402101308316DD00BC
:1002F0008312402102308316D60083124B21063030
:100300008316DD0083124021080001308316DD00D2
:100310008312402102308316D60083124B2108003D
:1003200080308316D800C030D9009430DA00D43041
:10033000DB00D83056078400831357080007DC0021
:10034000DD0083124021080083160911831209156C
:100350008316DF015908DE008312282108000B08EC
:100360008316D60083128B13831603178C170C1475
:10037000000000000313D61FC02983128B178316B9
:10038000831203170C087F390319212A83160313DC
:10039000D600831203170D0883160313D7008312A8
:1003A00003170F0883160313D8005608D9008312C9
:1003B000A42183165708831203178D008316031395
:1003C0005808831203178F0003130B088316D900F4
:1003D00083128B13831603178C170C140000000074
:1003E0000313D91FF62983128B1783168312031761
:1003F0000C0D0E0D7F390319212A83160313D60025
:10040000831203170D0883160313D70083120317F3
:100410000F0883160313D8005608D9008312A421AD
:1004200083165708831203178D0083160313580889
:10043000831203178F008D0A03198F0A0313AF2944
:1004400003170313080085218316D601D7018312F1
:100450009021873003178D0000308F000313AF21E8
:1004600001308316D600D7018312902189300317FB
:100470008D0000308F000313AF2102308316D600A9
:10048000D701831290218B3003178D0000308F002D
:100490000313AF2103308316D600D70183129021B6
:1004A000933003178D0000308F000313AF218316A4
:1004B000D6010330D7008312902108008316D9019A
:1004C00059085607840083135718831780080319A7
:1004D000952A59085807DA005908560784008313EB
:1004E000571883170008DB0083120B08F7008B13E3
:1004F00083165A08831203178D00831603135B08B3
:10050000831203178C0083168C130C1555308D0045
:10051000AA308D008C148C188B2A0C11770883124A
:1005200003138B048316D90A602A5908073C031C5D
:10053000B92A59085807DA0083120B08F7008B1301
:1005400083165A08831203178D00FF308C00831620
:100550008C130C1555308D00AA308D008C148C181E
:10056000AF2A0C117708831203138B048316D90A60
:10057000952A83120800F701F80183165208031028
:100580005318F707F70CF80CD318F707F70CF80C0B
:100590005319F707F70CF80CD319F707F70CF80CF9
:1005A000531AF707F70CF80CD31AF707F70CF80CE7
:1005B000531BF707F70CF80CD31BF707F70CF80CD5
:1005C00083120800FE308316CE00FF30D000CF002B
:1005D000D101D11BEF2A5108033C031C242B8601B7
:1005E0004E0883128600031083164E0D013ECE0086
:1005F00006168312061A012B8316D001242B202BFA
:100600008312831686168312861A0C2B01308316EA
:10061000D000242B202B8312831606178312061B6F
:10062000172B02308316D000242B202B8312831625
:1006300086178312861B212B03308316D000242BB0
:1006400083128316D10AE92A500F272B352B510824
:10065000D2000430D3008312BB22831650087807DF
:100660002F3E840083130008CF004F08F800831248
:100670000800831654085207840083135318831705
:1006800083123F0880000800033057078316D2000A
:100690005108D6005208D700831290213F088316D4
:1006A000D9008312A42183165008D3004F08D2002A
:1006B000831257088316D400831239230800501977
:1006C000AA2B3F08413C0319AA2B3F08423C0319BF
:1006D000AA2B3F08433C0319AA2B3F08443C0319AB
:1006E000832B3F08233C0319832B5708073C031C2B
:1006F000822B8316D0014030CF004E08D1008312E8
:100700004423D70AAA2B3F08233C031DA02BD7085C
:1007100003199F2BD7032030BF008316D001403030
:10072000CF004E08D10083124423033057078316AD
:10073000CF004E08D6004F08D70083129021AA2B75
:100740005015FF30BF0001308316D6000330D700AC
:10075000831290210800033058078316D00001301F
:10076000D6005008D700831290213F08203C031D7B
:10077000BF2B20308316D9008312A421C42B2A302A
:100780008316D9008312A42183164F08D3004E0884
:10079000D200831258088316D4008312392308002C
:1007A000501D142C3F08413C0319142C3F08423CB7
:1007B0000319142C3F08433C0319142C3F08443CF4
:1007C0000319F52B3F0FE52BF52B3F08233C0319AD
:1007D000F52B5808073C031CF42B8316CF01483037
:1007E000CE008312AB23D80A142C3F08233C031DF0
:1007F000102CD80803190F2CD8032030BF00831603
:10080000CF014830CE008312AB2303305807831644
:10081000CE000130D6004E08D70083129021142C50
:100820003F08443C0319501608008316DB015B089F
:10083000073C031C3F2C5B085A07DD005D08831250
:1008400003178D0083168C130C1483120C08831667
:100850000313DC005C0F352C5B08580784008313FE
:100860005918831780013F2C3D2C5B0858078400E2
:100870008313591883175C088000DB0A172C831236
:10088000080083165908FA005808840083137A1860
:1008900083170008DC005B08FA005A088400831301
:1008A0007A18831700085C02031D6D2C5908FA00A2
:1008B0005808840083137A1883178008031D632C5B
:1008C0000030F800852C5908FA005808D80A031996
:1008D000D90ADA0A0319DB0A422C5908FA00580827
:1008E00084008313591883170008DC005B08FA00A2
:1008F0005A08840083135B18831700085C020318EE
:10090000832CFF30842C0130F80083120800403023
:1009100057078400831380018316D701D601D708B7
:10092000031DC62C5608E03C031CC62C5608831237
:1009300003178D0083168C130C1483120C08FF3CD4
:100940000319BF2C83160313D901CE30D8005608E3
:10095000DA00831215248316D901CE30D800DB01CA
:100960004030DA0083124124F808031DBE2C8316A0
:1009700056088312D9000130F800C92C0317103033
:1009800083160313D6070318D70A8F2C0030F800FC
:100990008312080085218316D601D7018312902186
:1009A000553003178D0000308F000313AF21013045
:1009B0008316D600D70183129021603003178D0073
:1009C00000308F000313AF2102308316D600D70109
:1009D000831290216A3003178D0000308F000313BB
:1009E000AF2103308316D600D701831290217430D3
:1009F00003178D0000308F000313AF21080008306B
:100A0000F80000008711A01120088316870000005D
:100A1000D60D83120712031C132D201620088316EF
:100A20008700172D831220122008831687000000EC
:100A30008312A0152008831687008312871D1E2DA0
:100A4000F80B012D00008711A011200883168700E4
:100A50000000831220162008831687000000000083
:100A60008312A0152008831687008312871D362D58
:100A7000F8010000071A78148711A01120088316C6
:100A80008700831207122012200883168700831222
:100A9000080008308316D7007708D8008312201684
:100AA00020088316870000008312A01520088316F3
:100AB00087008312871D5A2D071A0314071E03107F
:100AC000F80D0000A01120088316870083128711FB
:100AD0008316D70B4E2D831220162008831687000D
:100AE0000000831207128316580803197C2D831205
:100AF000201220088316870000008312A01520080A
:100B0000831687008312871D832D00008711A01193
:100B10002008831687000000831207122012200885
:100B20008316870083120800852101308316D600C2
:100B3000D70183129021783003178D0000308F0089
:100B40000313AF2102308316D600D7018312902100
:100B5000803003178D0000308F000313AF21033066
:100B60008316D600D70183129021843003178D009D
:100B700000308F000313AF210800D701D80183167E
:100B8000D6015608073C031CD12D4030560784007F
:100B90008313800148305607840083138001D60AEE
:100BA000C12D831208008724F8080319CC2E483081
:100BB0005807840083138001D0100830590783162A
:100BC000D600D901CE30D8005608DA008312152499
:100BD0008316D901CE30D800DB014830DA00831209
:100BE0004124F808031DC72E52088316D90083122A
:100BF00051088316D800DB014030DA00831241240B
:100C0000F808031D062ED014CA24C32ED0162016B1
:100C10002008831687000430F700F70B0D2E83128F
:100C2000A0152008831687000330F700F70B162E57
:100C30008312071220122008831687000430F70061
:100C4000F70B202E83128711A0112008831687002E
:100C5000D030D6008312FF248316D6018312FF24DE
:100C600020162008831687000430F700F70B362E75
:100C70008312A0152008831687000330F700F70BB6
:100C80003F2E8312871D422E071220122008831642
:100C900087000430F700F70B4B2E83128711A01149
:100CA000200883168700D130D6008312FF2401303C
:100CB000F70049257808AB000130F700492578088E
:100CC000AA000130F70049257808A9000130F70093
:100CD00049257808A8000130F70049257808A700C1
:100CE0000130F70049257808A6000130F7004925B2
:100CF0007808A5000130F70049257808AD00F70114
:100D000049257808AC0020122008831687000000CF
:100D10008312A0152008831687008312871D8E2E4C
:100D20000430F700F70B922E952E000020162008B5
:100D3000831687000430F700F70B9C2E01308312D6
:100D40002907E10001302A07E20001302B07E30008
:100D500001302707E40001302607E50001302507B0
:100D6000E600E7018316D7016130D600F830D800DD
:100D700083125E228316D7014030D600F030D800AF
:100D800083125E229425BD250130F800C92E003063
:100D9000F800F808031DCF2E0030F800D12E0130E6
:100DA000F8008A110A16C828852101308316D6005A
:100DB000D701831290214A3003178D0000308F0035
:100DC0000313AF210C308316CE00FA30D600831205
:100DD0004B218316CE0BE52E831223228A110A168D
:100DE000D12883164F08D6005008D70083129021CF
:100DF0008316D1015108053C031C1E2F5108033CEA
:100E0000031D0B2F01304F07D200D6005008D7002A
:100E10008312902183164E08D2000630D30083122D
:100E2000BB22831651087807831204208316D20050
:100E3000D9008312A4218316D10AFA2E83128A11B3
:100E40000A160929BD2585218316D601D7018312EB
:100E500090219D3003178D0000308F000313AF21C8
:100E600001308316D600D701831290219F300317DB
:100E70008D0000308F000313AF2102308316D6009F
:100E8000D70183129021A13003178D0000308F000D
:100E90000313AF218316D6010330D70083129021AC
:100EA00008000130DA00BD25222750118A110A16E8
:100EB000A92A0230DA005011BD25BD258521033055
:100EC0008316D600D70183129021A63003178D0018
:100ED00000308F000313AF218A110A163D298316B3
:100EE0005E08840083135F188317600880008312F4
:100EF000080083165508F80154020318822F54087D
:100F0000F7008E2FF7010830D600D40DF70D5508E5
:100F100077020318F700F80DD60B852F831208000F
:100F2000E008031DA02F8316D601D701831290215C
:100F3000C83003178D0000308F000313AF21CD2F71
:100F400060085D020318CD2F85215D08DE000330A7
:100F50005D0760020318B62F60088316D4000330C3
:100F6000D500831279277708DD07B82F0330DD0716
:100F70005E088316CE0083125D0883164E020318A6
:100F8000CA2F4E08CF008A15831261218A11831659
:100F9000CE0ABB2F83125E08DF000800BD25033098
:100FA000DA00501585218316D601D70183129021CE
:100FB000BC3003178D0000308F000313AF210130C8
:100FC0008316D600D70183129021C33003178D00FA
:100FD00000308F000313AF218A110A16A92ABD25FC
:0A0FE000DA015011D011CA240800F4
:101000008316CF011030CE00CF08031D5D294E0896
:10101000E03C031C5D294E08831203178D008316E4
:101020008C130C1483120C08FF3C031956298316E9
:101030000313D3010830D200831222088316D5008F
:10104000831221088316D400D408031D2A28D5084A
:1010500003192529540884008313551883170008A1
:10106000DA00DA1B182954088400831355188317F3
:10107000D308031D182952080002031C182954081C
:101080008400831355188317D9010008D800033052
:101090005207F8005308FA000318FA0A7A085902AE
:1010A000031C0329031D5828580878020318032934
:1010B00052085802DA005908DB005308031C530F8A
:1010C000DB020330DA020030031C0130DB020330A4
:1010D0005407DC005508DD000318DD0A5208DC0760
:1010E00053080318530FDD075B08DF005A08DE00C2
:1010F0005D08E1005C08E0006108E3006008E200D0
:10110000620884008313631883175E08800001302F
:1011100062078400831363188317840A80018403A1
:1011200080016208F8006308F9007908D7007808A0
:10113000D6005508DB005408DA005708DD005608D1
:10114000DC0001305A07840083135B188317840A7C
:101150000008DF0084030008DE00DE08031DBE284F
:10116000DF08031DBE2801305C07840083135D186F
:101170008317840A800184038001E22801305C0720
:10118000F8005D08FA000318FA0A7808DE007A0809
:10119000DF0001305A07840083135B188317840A29
:1011A0000008FA0084030008E0007A08E1005E0805
:1011B000840083135F188317840A61088000840306
:1011C0006008800001305A07840083135B1883177E
:1011D000840A5D08800084035C0880007F30520729
:1011E000DA005308DB000318DB0A5508DF00540857
:1011F000DE005B08E1005A08E0008A1183126F27C5
:101200008A15162983167F305807DA005908DB0043
:101210000318DB0A5508DF005408DE005B08E10014
:101220005A08E0008A1183126F278A158316252930
:10123000013054078400831355188317840A00086B
:10124000D50084030008D4002428D408031D3029C5
:10125000D508031D30290030F800F9003929392953
:1012600003305407F8005508FA000318FA0A7A0800
:10127000F9007908D1007808D0005108D900500849
:10128000D8004E08DA008A11831215248A1503103B
:10129000600DA03E84008313840A831651088000E9
:1012A0008403500880008312E00A0317103083166D
:1012B0000313CE070318CF0A042883128A110A16D3
:1012C0004329013083164F07D300D4000A30D500DC
:1012D0008A11831279278A1578088316D000013085
:1012E0004F07D300D4000A30D5008A118312792722
:1012F0008A1577088316D1004F08D4000330D50033
:101300008A11831279278A1577088316D200D600AE
:10131000D7018A11831290218A158316D008031DE4
:101320009B2930305107D200D9008A118312A421A1
:101330008A15AC29831630305007D200D9008A11A3
:101340008312A4218A15303083165107D200D900A8
:101350008A118312A4218A15C53003178D0000302D
:101360008F008A110313AF218A1583164F08D2000C
:10137000D3010310520DA03E84008313840A000899
:10138000D50084030008D40053085407F80055081A
:10139000FA000318FA0A7808840083137A1883176E
:1013A00080080319F4290310520DA03E8400831312
:1013B000840A0008D50084030008D40053085407A9
:1013C000F8005508FA000318FA0A78088400831315
:1013D0007A1883170008D400D9008A118312A42137
:1013E0008A158316D30AB9290330D600D7018A118A
:1013F000831290218A15C63003178D0000308F00AC
:101400008A110313AF218A1508008316D008031D23
:101410000E2AD108031D0E2A1C2B3C2A0330500231
:10142000D2005108D3000030031C0130D30252080F
:1014300084008313531883170008D600D61F392A57
:10144000520884008313531883177F300002D4009E
:10145000D5015308DF005208DE005508E1005408AA
:10146000E0008A1183126F278A158316D101D001FB
:101470003C2AD101D0011C2B831222088316D700ED
:10148000831221088316D600D608031D4A2AD708DE
:1014900003191C2B56088400831357188317000860
:1014A000DE00DE1B0D2B56088400831357188317AC
:1014B000DB010008DA000130560784008313571857
:1014C0008317840A0008D90084030008D80058084C
:1014D00084008313591883170008DE00DE1BFE2AE0
:1014E0005A085607DE005708DF005B0803185B0F39
:1014F000DF0703305E07F8005F08FA000318FA0AF6
:1015000078085802031DFE2A7A085902031DFE2A94
:1015100058088400831359188317DD010008DC0084
:1015200003305C07F8005D08FA000318FA0A78082F
:10153000DA077A0803187A0FDB075908DF00580822
:10154000DE00831222088316E1008312210883162D
:10155000E000013060078400831361188317840A58
:101560000008E30084030008E2005E086202031D35
:10157000BD2A5F0863020319CA2A0130600784008C
:10158000831361188317840A0008E10084030008AC
:10159000E000A92A01306007F8006108FA0003188A
:1015A000FA0A7808E2007A08E30001305E07840056
:1015B00083135F188317840A0008FA008403000865
:1015C000E4007A08E5006208840083136318831737
:1015D000840A65088000840364088000DF01DE015E
:1015E0005708DF005608DE005B08E1005A08E000FB
:1015F0008A1183126F278A150B2B83160130560729
:101600008400831357188317840A0008D7008403C3
:101610000008D60083121A2B831601305607840067
:10162000831357188317840A0008D700840300081F
:10163000D60083128316442A83128A110A16412C7B
:101640008A1185218A1501308316D600D7018A11A7
:10165000831290218A15B13003178D0000308F005E
:101660008A110313AF218A1508308316CE00FA3091
:10167000D6008A1183124B218A158316CE0B372B85
:10168000831208008A1185218A158316D601D70195
:101690008A11831290218A15A83003178D0000301B
:1016A0008F008A110313AF218A1501308316D600EB
:1016B000D7018A11831290218A15AF3003178D004C
:1016C00000308F008A110313AF218A158A110A1680
:0216D000CF2C1D
:1020000003081F398300FF30A0005010D010D70103
:10201000D8015011D011DA01DB015012DC01DD01D1
:10202000DE01DF01E001D01283161F149F141F157B
:102030009F118312A2016930A1000B30E900EB016E
:10204000E630EA0007308316E6000130E800103081
:10205000E7005D308312031790000130920090304A
:1020600091005D3083169000920191018312031359
:102070008313A301A4013130AF003230B0003330FC
:10208000B1004130B2003430B3003530B4003630E6
:10209000B5004230B6003730B7003830B8003930BC
:1020A000B9004330BA002A30BB003030BC002330C6
:1020B000BD004430BE003130D3003230D400333064
:1020C000D500D601D2015330D1008316C101C2011F
:1020D000C301C401C501C601C701C8010A128312A8
:1020E0005F210A160A1285210A160030831688001D
:1020F000091089100911F030860081130A12831229
:102100005F210A160A1285210A160A1223220A16CC
:1021100031308316CA003230CB003330CC00CD01D1
:10212000D701CA30D600D8010A1283125E220A16DD
:102130008316D701CA30D6000830D8000A1283129D
:102140005E220A160A12E2220A167808BF003F0F22
:10215000AA28252D32308316D6000A1283124B216D
:102160000A160A12E2220A167808BF003F0FB928A1
:10217000252D50182A298316CE010A1283125F23B7
:102180000A160A12D0230A16501ED8280A12D32D76
:102190000A16F8080319CF285014DC01D3280A12B4
:1021A000D42E0A16DC0A0A12BD250A165011501246
:1021B0005C08033C031D29290A1285210A160130F7
:1021C0008316D600D7010A12831290210A16D33043
:1021D00003178D0000308F000A120313AF210A1677
:1021E0002010200883168700831207148316BF016E
:1021F0000530BE00BE08031D0029BF0803191B29B6
:102200003E08CE000230CF000830D0000A12831200
:10221000F12E0A1604308316CE00FA30D6000A12C8
:1022200083124B210A168316CE0B0D293E08031983
:10223000BF03BE03FA2883122010200883168700EC
:10224000831207100A1285210A160A1223220A167F
:10225000DC01142DD01CC22CDA08031DAA2A3F0869
:10226000313C031D37290A12512F0A16A92A3F08AB
:10227000323C031D49290A12592F0A16DD01E001DB
:102280000A128A1500280A168A110A1290270A16BD
:10229000A92A3F08333C031D51290A12CE2F0A16E2
:1022A000A92A3F08343C031D5F290A12BD250A16DE
:1022B000DA01501150100A1223220A16A92A3F08E7
:1022C000353C031DA92A0530DA000A1285210A16B9
:1022D0008316D601D7010A12831290210A16DD3027
:1022E00003178D0000308F000A120313AF210A1666
:1022F000D01E962A8316D9014030D800F030DA007B
:102300000A12831215240A168316D9016130D800E7
:10231000F830DA000A12831215240A1601308316E7
:10232000D600D7010A12831290210A16E73003174C
:102330008D0000308F000A120313AF210A16831696
:10234000BF01BE0140303E07840083133F1883174E
:1023500080080319C3293F08FA003E08BE0A031982
:10236000BF0ACE007A08CF0040304E0784008313A6
:102370004F1883170008D000D9000A128312A42135
:102380000A168316A2290230D6000430D7000A129A
:10239000831290210A1601306102F700F70E0F3008
:1023A000F7057708303E8316CE00D9000A12831253
:1023B000A4210A16013061020F39303E8316CE0087
:1023C000D9000A128312A4210A1620308316D900DC
:1023D0000A128312A4210A1601306202F700F70ED6
:1023E0000F30F7057708303E8316CE00D9000A1269
:1023F0008312A4210A16013062020F39303E83167F
:10240000CE00D9000A128312A4210A1620308316A6
:10241000D9000A128312A4210A1601306302F700C0
:10242000F70E0F30F7057708303E8316CE00D9003F
:102430000A128312A4210A16013063020F39303EBA
:102440008316CE00D9000A128312A4210A16033083
:102450008316D6000430D7000A12831290210A1680
:1024600001306402F700F70E0F30F7057708303EB1
:102470008316CE00D9000A128312A4210A16013055
:1024800064020F39303E8316CE00D9000A1283123F
:10249000A4210A1620308316D9000A128312A4211F
:1024A0000A1601306502F700F70E0F30F7057708BE
:1024B000303E8316CE00D9000A128312A4210A16D8
:1024C000013065020F39303E8316CE00D9000A1262
:1024D0008312A4210A1620308316D9000A1283120F
:1024E000A4210A16EA3003178D0000308F000A126B
:1024F0000313AF210A1601306602F700F70E0F3002
:10250000F7057708303E8316CE00D9000A128312F1
:10251000A4210A16013066020F39303E8316CE0020
:10252000D9000A128312A4210A16A92AD01AA92AAC
:1025300001308316D600D7010A12831290210A16A1
:10254000EC3003178D0000308F000A120313AF2107
:102550000A16BF2C5A0BA22BD019012B3F08443C62
:10256000031DF22A0A1287240A16831649107818C6
:102570004914491CE52A0A12831285210A160130E2
:102580008316D600D7010A12831290210A16F7305B
:1025900003178D0000308F000A120313AF210A16B3
:1025A00008308316CE00FA30D6000A1283124B216F
:1025B0000A168316CE0BD32A0A128312BD250A16D9
:1025C0000A1222270A16F12A83168312D0155015F3
:1025D00001308316D6000330D7000A1283129021EF
:1025E0000A16002B3F08433C031DFA2A0A12EF2764
:1025F0000A16002B8316CE010A1283125F230A16D5
:10260000A12B3F08443C031D962BD8080319952B9A
:102610008316BF011030BE00BF08031D272B3E08E4
:10262000E03C031C272B3E08831203178D00831602
:102630008C130C1483120C0883160313C000400F74
:10264000222B272B1030BE070318BF0A0C2BBF0804
:10265000031D702B3E08E03C031C702BD70140305B
:10266000D6003E08D8000A1283125E220A160830ED
:1026700083163E07CE003F08CF000318CF0AD701CC
:102680004830D6004E08D8000A1283125E220A167D
:102690000A1285210A1601308316D600D7010A12C4
:1026A000831290210A16003003178D0001308F002D
:1026B0000A120313AF210A1608308316CE00FA302F
:1026C000D6000A1283124B210A168316CE0B5F2BFB
:1026D0008312DA01D0110A12CA240A16952B831626
:1026E0000A12831285210A1601308316D600D701FB
:1026F0000A12831290210A160B3003178D00013045
:102700008F000A120313AF210A1604308316CE007D
:10271000FA30D6000A1283124B210A168316CE0B0A
:10272000882B0A128312CA240A16A12B3F08433CA5
:10273000031D9E2B0A12EF270A16A12B0A12D02383
:102740000A16BF2C5A08023C031D872C3F08443C44
:10275000031D172C0A1287240A16F8080319F12BF7
:102760008316D9014030D800831252088316DB004B
:10277000831251088316DA000A12831241240A16C2
:10278000F8080319F12B8316D701C130D600831244
:1027900059088316D8000A1283125E220A160830DE
:1027A00059078316CE00D701C130D6004E08D80095
:1027B0000A1283125E220A160A1285210A160130B5
:1027C0008316D600D7010A12831290210A161330FD
:1027D00003178D0001308F000A120313AF210A1670
:1027E000052C0A1285210A1601308316D600D7015E
:1027F0000A12831290210A161D3003178D00013032
:102800008F000A120313AF210A16DA01083083166B
:10281000CE00FA30D6000A1283124B210A16831614
:10282000CE0B092C0A128312CA240A16842C3F08E4
:10283000433C031D4A2C0A12EF270A168316BF01D8
:10284000BE01BF08031D482C3E08093C031C482C50
:1028500003103E0DF9003F0DFA007908A03E8400F8
:1028600083137A188317840A0008CF0084030008B2
:10287000CE004F08D1004E08D0000A128A158312EC
:10288000052A0A168A118316BE0A0319BF0A212CCB
:10289000852C83123F08423C031D522C0A129027BC
:1028A0000A16842C3F08413C031D7D2CDF080319C8
:1028B0007C2C0A1285210A1603305F028316BE00A3
:1028C000BF01BF08031D772C83125F0883163E02E9
:1028D0000318772C3E08CF000A128A158312612153
:1028E0000A168A118316BE0A0319BF0A612C8312C5
:1028F0005F08DD000330DF02842C03308316CE0036
:102900000A1283125F230A168316C02C83125A08F8
:10291000033C031DB42C3F08443C031DA82C483045
:1029200058078400831380018316D7014830D600EE
:102930000830D8000A1283125E220A160A128A157B
:1029400020230A168A11DA010A12CA240A16B32CA5
:102950003F08433C031DB02C0A12EF270A16B32C84
:102960000A12D0230A16BF2C5A08053C031DBF2C9F
:102970003F08433C031DBF2C0A12EF270A1683169B
:10298000152D8312DB08031DE32C3F08313C031D8A
:10299000D52C0A12BD250A160A128A15422B0A16D0
:1029A0008A1150150130DB00E22C3F08323C031D38
:1029B000E22C0A12BD250A16DB01501150100A1232
:1029C00023220A16142D5B0B142D3F08443C031DD3
:1029D000052D4830580784008313800108305907BB
:1029E0008316CE00D7014830D6004E08D8000A1210
:1029F00083125E220A160A128A1520230A168A11E9
:102A00000A1294250A16DB01142D3F08433C031DCE
:102A1000112D0A12BD250A16DB010A1294250A1689
:102A2000142D0A12D0230A1683160A128312E222E8
:102A30000A16780F1C2D1E2D8316152D3230831685
:0E2A4000D6000A1283124B210A16A228630048
:02400E00723FFF
:00000001FF
;PIC16F877
;CRC=8C48  CREATED="06-May-20 21:02"
